{
  "contractName": "Factory",
  "abi": [
    {
      "constant": true,
      "inputs": [
        {
          "name": "",
          "type": "address"
        }
      ],
      "name": "isInstantiation",
      "outputs": [
        {
          "name": "",
          "type": "bool"
        }
      ],
      "payable": false,
      "stateMutability": "view",
      "type": "function"
    },
    {
      "constant": true,
      "inputs": [
        {
          "name": "",
          "type": "address"
        },
        {
          "name": "",
          "type": "uint256"
        }
      ],
      "name": "instantiations",
      "outputs": [
        {
          "name": "",
          "type": "address"
        }
      ],
      "payable": false,
      "stateMutability": "view",
      "type": "function"
    },
    {
      "anonymous": false,
      "inputs": [
        {
          "indexed": false,
          "name": "sender",
          "type": "address"
        },
        {
          "indexed": false,
          "name": "instantiation",
          "type": "address"
        }
      ],
      "name": "ContractInstantiation",
      "type": "event"
    },
    {
      "constant": true,
      "inputs": [
        {
          "name": "creator",
          "type": "address"
        }
      ],
      "name": "getInstantiationCount",
      "outputs": [
        {
          "name": "",
          "type": "uint256"
        }
      ],
      "payable": false,
      "stateMutability": "view",
      "type": "function"
    }
  ],
  "bytecode": "0x608060405234801561001057600080fd5b506101e4806100206000396000f3006080604052600436106100565763ffffffff7c01000000000000000000000000000000000000000000000000000000006000350416632f4f3316811461005b57806357183c821461009d5780638f838478146100f7575b600080fd5b34801561006757600080fd5b5061008973ffffffffffffffffffffffffffffffffffffffff60043516610137565b604080519115158252519081900360200190f35b3480156100a957600080fd5b506100ce73ffffffffffffffffffffffffffffffffffffffff6004351660243561014c565b6040805173ffffffffffffffffffffffffffffffffffffffff9092168252519081900360200190f35b34801561010357600080fd5b5061012573ffffffffffffffffffffffffffffffffffffffff60043516610190565b60408051918252519081900360200190f35b60006020819052908152604090205460ff1681565b60016020528160005260406000208181548110151561016757fe5b60009182526020909120015473ffffffffffffffffffffffffffffffffffffffff169150829050565b73ffffffffffffffffffffffffffffffffffffffff16600090815260016020526040902054905600a165627a7a7230582000db1fa00f9843b05d8afb610b75ad589650f048785270b663f00ae3941590c00029",
  "source": "pragma solidity ^0.4.15;\n\ncontract Factory {\n\n    /*\n     *  Events\n     */\n    event ContractInstantiation(address sender, address instantiation);\n\n    /*\n     *  Storage\n     */\n    mapping(address => bool) public isInstantiation;\n    mapping(address => address[]) public instantiations;\n\n    /*\n     * Public functions\n     */\n    /// @dev Returns number of instantiations by creator.\n    /// @param creator Contract creator.\n    /// @return Returns number of instantiations by creator.\n    function getInstantiationCount(address creator)\n        public\n        constant\n        returns (uint)\n    {\n        return instantiations[creator].length;\n    }\n\n    /*\n     * Internal functions\n     */\n    /// @dev Registers contract in factory registry.\n    /// @param instantiation Address of contract instantiation.\n    function register(address instantiation)\n        internal\n    {\n        isInstantiation[instantiation] = true;\n        instantiations[msg.sender].push(instantiation);\n        ContractInstantiation(msg.sender, instantiation);\n    }\n}\n",
  "sourcePath": "/home/aznagy/work/gnomultisig/MultiSigWallet/contracts/Factory.sol",
  "compiler": {
    "name": "solc",
    "version": "0.4.24+commit.e67f0147.Emscripten.clang"
  },
  "schemaVersion": "2.0.1",
  "updatedAt": "2018-07-30T08:56:17.014Z"
}