{
  "contractName": "TestToken",
  "abi": [
    {
      "constant": true,
      "inputs": [],
      "name": "name",
      "outputs": [
        {
          "name": "",
          "type": "string"
        }
      ],
      "payable": false,
      "stateMutability": "view",
      "type": "function"
    },
    {
      "constant": true,
      "inputs": [],
      "name": "totalSupply",
      "outputs": [
        {
          "name": "",
          "type": "uint256"
        }
      ],
      "payable": false,
      "stateMutability": "view",
      "type": "function"
    },
    {
      "constant": true,
      "inputs": [],
      "name": "decimals",
      "outputs": [
        {
          "name": "",
          "type": "uint8"
        }
      ],
      "payable": false,
      "stateMutability": "view",
      "type": "function"
    },
    {
      "constant": true,
      "inputs": [],
      "name": "symbol",
      "outputs": [
        {
          "name": "",
          "type": "string"
        }
      ],
      "payable": false,
      "stateMutability": "view",
      "type": "function"
    },
    {
      "anonymous": false,
      "inputs": [
        {
          "indexed": true,
          "name": "from",
          "type": "address"
        },
        {
          "indexed": true,
          "name": "to",
          "type": "address"
        },
        {
          "indexed": false,
          "name": "value",
          "type": "uint256"
        }
      ],
      "name": "Transfer",
      "type": "event"
    },
    {
      "anonymous": false,
      "inputs": [
        {
          "indexed": true,
          "name": "owner",
          "type": "address"
        },
        {
          "indexed": true,
          "name": "spender",
          "type": "address"
        },
        {
          "indexed": false,
          "name": "value",
          "type": "uint256"
        }
      ],
      "name": "Approval",
      "type": "event"
    },
    {
      "constant": false,
      "inputs": [
        {
          "name": "_to",
          "type": "address"
        },
        {
          "name": "_value",
          "type": "uint256"
        }
      ],
      "name": "issueTokens",
      "outputs": [],
      "payable": false,
      "stateMutability": "nonpayable",
      "type": "function"
    },
    {
      "constant": false,
      "inputs": [
        {
          "name": "_to",
          "type": "address"
        },
        {
          "name": "_value",
          "type": "uint256"
        }
      ],
      "name": "transfer",
      "outputs": [
        {
          "name": "success",
          "type": "bool"
        }
      ],
      "payable": false,
      "stateMutability": "nonpayable",
      "type": "function"
    },
    {
      "constant": false,
      "inputs": [
        {
          "name": "_from",
          "type": "address"
        },
        {
          "name": "_to",
          "type": "address"
        },
        {
          "name": "_value",
          "type": "uint256"
        }
      ],
      "name": "transferFrom",
      "outputs": [
        {
          "name": "success",
          "type": "bool"
        }
      ],
      "payable": false,
      "stateMutability": "nonpayable",
      "type": "function"
    },
    {
      "constant": false,
      "inputs": [
        {
          "name": "_spender",
          "type": "address"
        },
        {
          "name": "_value",
          "type": "uint256"
        }
      ],
      "name": "approve",
      "outputs": [
        {
          "name": "success",
          "type": "bool"
        }
      ],
      "payable": false,
      "stateMutability": "nonpayable",
      "type": "function"
    },
    {
      "constant": true,
      "inputs": [
        {
          "name": "_owner",
          "type": "address"
        },
        {
          "name": "_spender",
          "type": "address"
        }
      ],
      "name": "allowance",
      "outputs": [
        {
          "name": "remaining",
          "type": "uint256"
        }
      ],
      "payable": false,
      "stateMutability": "view",
      "type": "function"
    },
    {
      "constant": true,
      "inputs": [
        {
          "name": "_owner",
          "type": "address"
        }
      ],
      "name": "balanceOf",
      "outputs": [
        {
          "name": "balance",
          "type": "uint256"
        }
      ],
      "payable": false,
      "stateMutability": "view",
      "type": "function"
    }
  ],
  "bytecode": "0x608060405234801561001057600080fd5b50610634806100206000396000f3006080604052600436106100a35763ffffffff7c010000000000000000000000000000000000000000000000000000000060003504166306fdde0381146100a8578063095ea7b31461013257806318160ddd1461017757806323b872dd1461019e578063313ce567146101d5578063475a9fa91461020057806370a082311461023357806395d89b4114610261578063a9059cbb14610276578063dd62ed3e146102a7575b600080fd5b3480156100b457600080fd5b506100bd6102db565b6040805160208082528351818301528351919283929083019185019080838360005b838110156100f75781810151838201526020016100df565b50505050905090810190601f1680156101245780820380516001836020036101000a031916815260200191505b509250505060405180910390f35b34801561013e57600080fd5b5061016373ffffffffffffffffffffffffffffffffffffffff60043516602435610312565b604080519115158252519081900360200190f35b34801561018357600080fd5b5061018c610385565b60408051918252519081900360200190f35b3480156101aa57600080fd5b5061016373ffffffffffffffffffffffffffffffffffffffff6004358116906024351660443561038b565b3480156101e157600080fd5b506101ea61048e565b6040805160ff9092168252519081900360200190f35b34801561020c57600080fd5b5061023173ffffffffffffffffffffffffffffffffffffffff60043516602435610493565b005b34801561023f57600080fd5b5061018c73ffffffffffffffffffffffffffffffffffffffff600435166104ca565b34801561026d57600080fd5b506100bd6104f2565b34801561028257600080fd5b5061016373ffffffffffffffffffffffffffffffffffffffff60043516602435610529565b3480156102b357600080fd5b5061018c73ffffffffffffffffffffffffffffffffffffffff600435811690602435166105d0565b60408051808201909152600a81527f5465737420546f6b656e00000000000000000000000000000000000000000000602082015281565b33600081815260016020908152604080832073ffffffffffffffffffffffffffffffffffffffff8716808552908352818420869055815186815291519394909390927f8c5be1e5ebec7d5bd14f71427d1e84f3dd0314c0f7b2291e5b200ac8c7c3b925928290030190a350600192915050565b60025481565b73ffffffffffffffffffffffffffffffffffffffff831660009081526020819052604081205482118015906103f0575073ffffffffffffffffffffffffffffffffffffffff841660009081526001602090815260408083203384529091529020548211155b15156103fb57600080fd5b73ffffffffffffffffffffffffffffffffffffffff80841660008181526020818152604080832080548801905593881680835284832080548890039055600182528483203384528252918490208054879003905583518681529351929391927fddf252ad1be2c89b69c2b068fc378daa952ba7f163c4a11628f55a4df523b3ef9281900390910190a35060019392505050565b600181565b73ffffffffffffffffffffffffffffffffffffffff9091166000908152602081905260409020805482019055600280549091019055565b73ffffffffffffffffffffffffffffffffffffffff1660009081526020819052604090205490565b60408051808201909152600281527f5454000000000000000000000000000000000000000000000000000000000000602082015281565b600060403660441461053a57600080fd5b3360009081526020819052604090205483111561055657600080fd5b336000818152602081815260408083208054889003905573ffffffffffffffffffffffffffffffffffffffff881680845292819020805488019055805187815290519293927fddf252ad1be2c89b69c2b068fc378daa952ba7f163c4a11628f55a4df523b3ef929181900390910190a35060019392505050565b73ffffffffffffffffffffffffffffffffffffffff9182166000908152600160209081526040808320939094168252919091522054905600a165627a7a723058202d54bac308eb099d10e416d030b0f6d8404b874b713873284f3acf87f21442fc0029",
  "source": "pragma solidity ^0.4.15;\n\n\n/// @title Test token contract - Allows testing of token transfers with multisig wallet.\ncontract TestToken {\n\n    /*\n     *  Events\n     */\n    event Transfer(address indexed from, address indexed to, uint256 value);\n    event Approval(address indexed owner, address indexed spender, uint256 value);\n\n    /*\n     *  Constants\n     */\n    string constant public name = \"Test Token\";\n    string constant public symbol = \"TT\";\n    uint8 constant public decimals = 1;\n\n    /*\n     *  Storage\n     */\n    mapping (address => uint256) balances;\n    mapping (address => mapping (address => uint256)) allowed;\n    uint256 public totalSupply;\n\n    /*\n     * Public functions\n     */\n    /// @dev Issues new tokens.\n    /// @param _to Address of token receiver.\n    /// @param _value Number of tokens to issue.\n    function issueTokens(address _to, uint256 _value)\n        public\n    {\n        balances[_to] += _value;\n        totalSupply += _value;\n    }\n\n    /*\n     * This modifier is present in some real world token contracts, and due to a solidity\n     * bug it was not compatible with multisig wallets\n     */\n    modifier onlyPayloadSize(uint size) {\n        require(msg.data.length == size + 4);\n        _;\n    }\n\n    /// @dev Transfers sender's tokens to a given address. Returns success.\n    /// @param _to Address of token receiver.\n    /// @param _value Number of tokens to transfer.\n    /// @return Returns success of function call.\n    function transfer(address _to, uint256 _value) onlyPayloadSize(2 * 32)\n        public\n        returns (bool success)\n    {\n        require(balances[msg.sender] >= _value);\n        balances[msg.sender] -= _value;\n        balances[_to] += _value;\n        Transfer(msg.sender, _to, _value);\n        return true;\n    }\n\n    /// @dev Allows allowed third party to transfer tokens from one address to another. Returns success.\n    /// @param _from Address from where tokens are withdrawn.\n    /// @param _to Address to where tokens are sent.\n    /// @param _value Number of tokens to transfer.\n    /// @return Returns success of function call.\n    function transferFrom(address _from, address _to, uint256 _value)\n        public\n        returns (bool success)\n    {\n        require(balances[_from] >= _value && allowed[_from][msg.sender] >= _value);\n        balances[_to] += _value;\n        balances[_from] -= _value;\n        allowed[_from][msg.sender] -= _value;\n        Transfer(_from, _to, _value);\n        return true;\n    }\n\n    /// @dev Sets approved amount of tokens for spender. Returns success.\n    /// @param _spender Address of allowed account.\n    /// @param _value Number of approved tokens.\n    /// @return Returns success of function call.\n    function approve(address _spender, uint256 _value)\n        public\n        returns (bool success)\n    {\n        allowed[msg.sender][_spender] = _value;\n        Approval(msg.sender, _spender, _value);\n        return true;\n    }\n\n    /// @dev Returns number of allowed tokens for given address.\n    /// @param _owner Address of token owner.\n    /// @param _spender Address of token spender.\n    /// @return Returns remaining allowance for spender.\n    function allowance(address _owner, address _spender)\n        constant\n        public\n        returns (uint256 remaining)\n    {\n        return allowed[_owner][_spender];\n    }\n\n    /// @dev Returns number of tokens owned by given address.\n    /// @param _owner Address of token owner.\n    /// @return Returns balance of owner.\n    function balanceOf(address _owner)\n        constant\n        public\n        returns (uint256 balance)\n    {\n        return balances[_owner];\n    }\n}\n",
  "sourcePath": "/home/aznagy/work/gnomultisig/MultiSigWallet/contracts/TestToken.sol",
  "compiler": {
    "name": "solc",
    "version": "0.4.24+commit.e67f0147.Emscripten.clang"
  },
  "schemaVersion": "2.0.1",
  "updatedAt": "2018-07-30T08:56:17.025Z"
}